{
  "_format": "hh-sol-artifact-1",
  "contractName": "Marketplace",
  "sourceName": "contracts/Marketplace.sol",
  "abi": [
    {
      "inputs": [],
      "stateMutability": "nonpayable",
      "type": "constructor"
    },
    {
      "inputs": [],
      "name": "ReentrancyGuardReentrantCall",
      "type": "error"
    },
    {
      "anonymous": false,
      "inputs": [
        {
          "indexed": true,
          "internalType": "uint256",
          "name": "listingId",
          "type": "uint256"
        }
      ],
      "name": "ListingCancelled",
      "type": "event"
    },
    {
      "anonymous": false,
      "inputs": [
        {
          "indexed": true,
          "internalType": "uint256",
          "name": "listingId",
          "type": "uint256"
        },
        {
          "indexed": true,
          "internalType": "address",
          "name": "nftContract",
          "type": "address"
        },
        {
          "indexed": true,
          "internalType": "uint256",
          "name": "tokenId",
          "type": "uint256"
        },
        {
          "indexed": false,
          "internalType": "address",
          "name": "seller",
          "type": "address"
        },
        {
          "indexed": false,
          "internalType": "uint256",
          "name": "price",
          "type": "uint256"
        }
      ],
      "name": "NFTListed",
      "type": "event"
    },
    {
      "anonymous": false,
      "inputs": [
        {
          "indexed": true,
          "internalType": "uint256",
          "name": "listingId",
          "type": "uint256"
        },
        {
          "indexed": true,
          "internalType": "address",
          "name": "buyer",
          "type": "address"
        },
        {
          "indexed": true,
          "internalType": "address",
          "name": "seller",
          "type": "address"
        },
        {
          "indexed": false,
          "internalType": "uint256",
          "name": "price",
          "type": "uint256"
        }
      ],
      "name": "NFTSold",
      "type": "event"
    },
    {
      "inputs": [
        {
          "internalType": "uint256",
          "name": "listingId",
          "type": "uint256"
        }
      ],
      "name": "buyNFT",
      "outputs": [],
      "stateMutability": "payable",
      "type": "function"
    },
    {
      "inputs": [
        {
          "internalType": "uint256",
          "name": "listingId",
          "type": "uint256"
        }
      ],
      "name": "cancelListing",
      "outputs": [],
      "stateMutability": "nonpayable",
      "type": "function"
    },
    {
      "inputs": [],
      "name": "feeRecipient",
      "outputs": [
        {
          "internalType": "address payable",
          "name": "",
          "type": "address"
        }
      ],
      "stateMutability": "view",
      "type": "function"
    },
    {
      "inputs": [],
      "name": "getAllListings",
      "outputs": [
        {
          "components": [
            {
              "internalType": "uint256",
              "name": "listingId",
              "type": "uint256"
            },
            {
              "internalType": "address",
              "name": "nftContract",
              "type": "address"
            },
            {
              "internalType": "uint256",
              "name": "tokenId",
              "type": "uint256"
            },
            {
              "internalType": "address payable",
              "name": "seller",
              "type": "address"
            },
            {
              "internalType": "uint256",
              "name": "price",
              "type": "uint256"
            },
            {
              "internalType": "bool",
              "name": "active",
              "type": "bool"
            }
          ],
          "internalType": "struct Marketplace.Listing[]",
          "name": "",
          "type": "tuple[]"
        }
      ],
      "stateMutability": "view",
      "type": "function"
    },
    {
      "inputs": [
        {
          "internalType": "uint256",
          "name": "listingId",
          "type": "uint256"
        }
      ],
      "name": "getListing",
      "outputs": [
        {
          "components": [
            {
              "internalType": "uint256",
              "name": "listingId",
              "type": "uint256"
            },
            {
              "internalType": "address",
              "name": "nftContract",
              "type": "address"
            },
            {
              "internalType": "uint256",
              "name": "tokenId",
              "type": "uint256"
            },
            {
              "internalType": "address payable",
              "name": "seller",
              "type": "address"
            },
            {
              "internalType": "uint256",
              "name": "price",
              "type": "uint256"
            },
            {
              "internalType": "bool",
              "name": "active",
              "type": "bool"
            }
          ],
          "internalType": "struct Marketplace.Listing",
          "name": "",
          "type": "tuple"
        }
      ],
      "stateMutability": "view",
      "type": "function"
    },
    {
      "inputs": [
        {
          "internalType": "address",
          "name": "nftContract",
          "type": "address"
        },
        {
          "internalType": "uint256",
          "name": "tokenId",
          "type": "uint256"
        },
        {
          "internalType": "uint256",
          "name": "price",
          "type": "uint256"
        }
      ],
      "name": "listNFT",
      "outputs": [
        {
          "internalType": "uint256",
          "name": "",
          "type": "uint256"
        }
      ],
      "stateMutability": "nonpayable",
      "type": "function"
    },
    {
      "inputs": [
        {
          "internalType": "uint256",
          "name": "",
          "type": "uint256"
        }
      ],
      "name": "listings",
      "outputs": [
        {
          "internalType": "uint256",
          "name": "listingId",
          "type": "uint256"
        },
        {
          "internalType": "address",
          "name": "nftContract",
          "type": "address"
        },
        {
          "internalType": "uint256",
          "name": "tokenId",
          "type": "uint256"
        },
        {
          "internalType": "address payable",
          "name": "seller",
          "type": "address"
        },
        {
          "internalType": "uint256",
          "name": "price",
          "type": "uint256"
        },
        {
          "internalType": "bool",
          "name": "active",
          "type": "bool"
        }
      ],
      "stateMutability": "view",
      "type": "function"
    },
    {
      "inputs": [],
      "name": "platformFee",
      "outputs": [
        {
          "internalType": "uint256",
          "name": "",
          "type": "uint256"
        }
      ],
      "stateMutability": "view",
      "type": "function"
    },
    {
      "inputs": [
        {
          "internalType": "uint256",
          "name": "newFee",
          "type": "uint256"
        }
      ],
      "name": "updatePlatformFee",
      "outputs": [],
      "stateMutability": "nonpayable",
      "type": "function"
    }
  ],
  "bytecode": "0x608060405260fa60025534801561001557600080fd5b506001600055600380546001600160a01b03191633179055610ea28061003c6000396000f3fe6080604052600436106100865760003560e01c806351ed82881161005957806351ed82881461013f578063aa0b598814610152578063ad05f1b414610172578063ae73ccec14610192578063de74e57b146101b457600080fd5b8063107a274a1461008b57806326232a2e146100c1578063305a67a8146100e55780634690484014610107575b600080fd5b34801561009757600080fd5b506100ab6100a6366004610c64565b61024f565b6040516100b89190610cc7565b60405180910390f35b3480156100cd57600080fd5b506100d760025481565b6040519081526020016100b8565b3480156100f157600080fd5b50610105610100366004610c64565b6102c0565b005b34801561011357600080fd5b50600354610127906001600160a01b031681565b6040516001600160a01b0390911681526020016100b8565b61010561014d366004610c64565b6103b6565b34801561015e57600080fd5b5061010561016d366004610c64565b610696565b34801561017e57600080fd5b506100d761018d366004610cf0565b610727565b34801561019e57600080fd5b506101a7610a77565b6040516100b89190610d25565b3480156101c057600080fd5b506102146101cf366004610c64565b600460208190526000918252604090912080546001820154600283015460038401549484015460059094015492946001600160a01b0392831694919392169160ff1686565b604080519687526001600160a01b039586166020880152860193909352921660608401526080830191909152151560a082015260c0016100b8565b610257610c1a565b50600090815260046020818152604092839020835160c0810185528154815260018201546001600160a01b0390811693820193909352600282015494810194909452600381015490911660608401529081015460808301526005015460ff16151560a082015290565b6102c8610bf0565b600081815260046020526040902060038101546001600160a01b031633146103285760405162461bcd60e51b815260206004820152600e60248201526d2737ba103a34329039b2b63632b960911b60448201526064015b60405180910390fd5b600581015460ff166103715760405162461bcd60e51b81526020600482015260126024820152714c697374696e67206e6f742061637469766560701b604482015260640161031f565b60058101805460ff1916905560405182907f411aee90354c51b1b04cd563fcab2617142a9d50da19232d888547c8a1b7fd8a90600090a2506103b36001600055565b50565b6103be610bf0565b6000818152600460205260409020600581015460ff166104155760405162461bcd60e51b81526020600482015260126024820152714c697374696e67206e6f742061637469766560701b604482015260640161031f565b80600401543410156104605760405162461bcd60e51b8152602060048201526014602482015273125b9cdd59999a58da595b9d081c185e5b595b9d60621b604482015260640161031f565b60038101546001600160a01b031633036104bc5760405162461bcd60e51b815260206004820152601760248201527f43616e6e6f742062757920796f7572206f776e204e4654000000000000000000604482015260640161031f565b60058101805460ff191690556002546004820154600091612710916104e19190610d89565b6104eb9190610da0565b905060008183600401546104ff9190610dc2565b600184015460038501546002860154604051632142170760e11b81526001600160a01b039283166004820152336024820152604481019190915292935016906342842e0e90606401600060405180830381600087803b15801561056157600080fd5b505af1158015610575573d6000803e3d6000fd5b50505060038401546040516001600160a01b03909116915082156108fc029083906000818181858888f193505050501580156105b5573d6000803e3d6000fd5b506003546040516001600160a01b039091169083156108fc029084906000818181858888f193505050501580156105f0573d6000803e3d6000fd5b50826004015434111561063c57600483015433906108fc906106129034610dc2565b6040518115909202916000818181858888f1935050505015801561063a573d6000803e3d6000fd5b505b600383015460048401546040519081526001600160a01b0390911690339086907f8562eb94748e30bb0071e932744ce902b460c683474fcb3bfd567ffa16b1afb29060200160405180910390a45050506103b36001600055565b6003546001600160a01b031633146106e15760405162461bcd60e51b815260206004820152600e60248201526d139bdd08185d5d1a1bdc9a5e995960921b604482015260640161031f565b6103e88111156107225760405162461bcd60e51b815260206004820152600c60248201526b08ccaca40e8dede40d0d2ced60a31b604482015260640161031f565b600255565b6000610731610bf0565b600082116107815760405162461bcd60e51b815260206004820152601c60248201527f5072696365206d7573742062652067726561746572207468616e203000000000604482015260640161031f565b6040516331a9108f60e11b815260048101849052849033906001600160a01b03831690636352211e90602401602060405180830381865afa1580156107ca573d6000803e3d6000fd5b505050506040513d601f19601f820116820180604052508101906107ee9190610dd5565b6001600160a01b0316146108345760405162461bcd60e51b815260206004820152600d60248201526c2737ba103a34329037bbb732b960991b604482015260640161031f565b60405163e985e9c560e01b81523360048201523060248201526001600160a01b0382169063e985e9c590604401602060405180830381865afa15801561087e573d6000803e3d6000fd5b505050506040513d601f19601f820116820180604052508101906108a29190610df2565b8061091e575060405163020604bf60e21b81526004810185905230906001600160a01b0383169063081812fc90602401602060405180830381865afa1580156108ef573d6000803e3d6000fd5b505050506040513d601f19601f820116820180604052508101906109139190610dd5565b6001600160a01b0316145b61096a5760405162461bcd60e51b815260206004820152601860248201527f4d61726b6574706c616365206e6f7420617070726f7665640000000000000000604482015260640161031f565b600180600082825461097c9190610e14565b9091555050600180546040805160c0810182528281526001600160a01b0389811660208084018281528486018c81523360608701818152608088018e815260a089018c815260008c81526004808952908c90209a518b5595519c8a0180546001600160a01b03199081169e8b169e909e179055935160028a01559051600389018054909c1697169690961790995593519085015591516005909301805460ff19169315159390931790925582519485528401879052919287929184917f18c93addaf4d0e5982a13cb88444441b90223974eaf9d6e898151cb4d96bf153910160405180910390a4915050610a706001600055565b9392505050565b600180546060916000905b828111610ac35760008181526004602052604090206005015460ff1615610ab15781610aad81610e27565b9250505b80610abb81610e27565b915050610a82565b5060008167ffffffffffffffff811115610adf57610adf610e40565b604051908082528060200260200182016040528015610b1857816020015b610b05610c1a565b815260200190600190039081610afd5790505b509050600060015b848111610be65760008181526004602052604090206005015460ff1615610bd457600081815260046020818152604092839020835160c0810185528154815260018201546001600160a01b0390811693820193909352600282015494810194909452600381015490911660608401529081015460808301526005015460ff16151560a08201528351849084908110610bba57610bba610e56565b60200260200101819052508180610bd090610e27565b9250505b80610bde81610e27565b915050610b20565b5090949350505050565b600260005403610c1357604051633ee5aeb560e01b815260040160405180910390fd5b6002600055565b6040518060c001604052806000815260200160006001600160a01b031681526020016000815260200160006001600160a01b03168152602001600081526020016000151581525090565b600060208284031215610c7657600080fd5b5035919050565b80518252602081015160018060a01b0380821660208501526040830151604085015280606084015116606085015250506080810151608083015260a0810151151560a08301525050565b60c08101610cd58284610c7d565b92915050565b6001600160a01b03811681146103b357600080fd5b600080600060608486031215610d0557600080fd5b8335610d1081610cdb565b95602085013595506040909401359392505050565b6020808252825182820181905260009190848201906040850190845b81811015610d6757610d54838551610c7d565b9284019260c09290920191600101610d41565b50909695505050505050565b634e487b7160e01b600052601160045260246000fd5b8082028115828204841417610cd557610cd5610d73565b600082610dbd57634e487b7160e01b600052601260045260246000fd5b500490565b81810381811115610cd557610cd5610d73565b600060208284031215610de757600080fd5b8151610a7081610cdb565b600060208284031215610e0457600080fd5b81518015158114610a7057600080fd5b80820180821115610cd557610cd5610d73565b600060018201610e3957610e39610d73565b5060010190565b634e487b7160e01b600052604160045260246000fd5b634e487b7160e01b600052603260045260246000fdfea26469706673582212204ea5e265f753279a7715ffe6b3f54a9c36304c7a27b76a245e792fb1ac0c6caf64736f6c63430008140033",
  "linkReferences": {},
  "deployedLinkReferences": {}
}