{
  "_format": "hh-sol-artifact-1",
  "contractName": "NFT",
  "sourceName": "contracts/NFT.sol",
  "abi": [
    {
      "inputs": [],
      "stateMutability": "nonpayable",
      "type": "constructor"
    },
    {
      "inputs": [
        {
          "internalType": "address",
          "name": "sender",
          "type": "address"
        },
        {
          "internalType": "uint256",
          "name": "tokenId",
          "type": "uint256"
        },
        {
          "internalType": "address",
          "name": "owner",
          "type": "address"
        }
      ],
      "name": "ERC721IncorrectOwner",
      "type": "error"
    },
    {
      "inputs": [
        {
          "internalType": "address",
          "name": "operator",
          "type": "address"
        },
        {
          "internalType": "uint256",
          "name": "tokenId",
          "type": "uint256"
        }
      ],
      "name": "ERC721InsufficientApproval",
      "type": "error"
    },
    {
      "inputs": [
        {
          "internalType": "address",
          "name": "approver",
          "type": "address"
        }
      ],
      "name": "ERC721InvalidApprover",
      "type": "error"
    },
    {
      "inputs": [
        {
          "internalType": "address",
          "name": "operator",
          "type": "address"
        }
      ],
      "name": "ERC721InvalidOperator",
      "type": "error"
    },
    {
      "inputs": [
        {
          "internalType": "address",
          "name": "owner",
          "type": "address"
        }
      ],
      "name": "ERC721InvalidOwner",
      "type": "error"
    },
    {
      "inputs": [
        {
          "internalType": "address",
          "name": "receiver",
          "type": "address"
        }
      ],
      "name": "ERC721InvalidReceiver",
      "type": "error"
    },
    {
      "inputs": [
        {
          "internalType": "address",
          "name": "sender",
          "type": "address"
        }
      ],
      "name": "ERC721InvalidSender",
      "type": "error"
    },
    {
      "inputs": [
        {
          "internalType": "uint256",
          "name": "tokenId",
          "type": "uint256"
        }
      ],
      "name": "ERC721NonexistentToken",
      "type": "error"
    },
    {
      "inputs": [
        {
          "internalType": "address",
          "name": "owner",
          "type": "address"
        }
      ],
      "name": "OwnableInvalidOwner",
      "type": "error"
    },
    {
      "inputs": [
        {
          "internalType": "address",
          "name": "account",
          "type": "address"
        }
      ],
      "name": "OwnableUnauthorizedAccount",
      "type": "error"
    },
    {
      "anonymous": false,
      "inputs": [
        {
          "indexed": true,
          "internalType": "address",
          "name": "owner",
          "type": "address"
        },
        {
          "indexed": true,
          "internalType": "address",
          "name": "approved",
          "type": "address"
        },
        {
          "indexed": true,
          "internalType": "uint256",
          "name": "tokenId",
          "type": "uint256"
        }
      ],
      "name": "Approval",
      "type": "event"
    },
    {
      "anonymous": false,
      "inputs": [
        {
          "indexed": true,
          "internalType": "address",
          "name": "owner",
          "type": "address"
        },
        {
          "indexed": true,
          "internalType": "address",
          "name": "operator",
          "type": "address"
        },
        {
          "indexed": false,
          "internalType": "bool",
          "name": "approved",
          "type": "bool"
        }
      ],
      "name": "ApprovalForAll",
      "type": "event"
    },
    {
      "anonymous": false,
      "inputs": [
        {
          "indexed": false,
          "internalType": "uint256",
          "name": "_fromTokenId",
          "type": "uint256"
        },
        {
          "indexed": false,
          "internalType": "uint256",
          "name": "_toTokenId",
          "type": "uint256"
        }
      ],
      "name": "BatchMetadataUpdate",
      "type": "event"
    },
    {
      "anonymous": false,
      "inputs": [
        {
          "indexed": false,
          "internalType": "uint256",
          "name": "_tokenId",
          "type": "uint256"
        }
      ],
      "name": "MetadataUpdate",
      "type": "event"
    },
    {
      "anonymous": false,
      "inputs": [
        {
          "indexed": true,
          "internalType": "address",
          "name": "previousOwner",
          "type": "address"
        },
        {
          "indexed": true,
          "internalType": "address",
          "name": "newOwner",
          "type": "address"
        }
      ],
      "name": "OwnershipTransferred",
      "type": "event"
    },
    {
      "anonymous": false,
      "inputs": [
        {
          "indexed": true,
          "internalType": "address",
          "name": "from",
          "type": "address"
        },
        {
          "indexed": true,
          "internalType": "address",
          "name": "to",
          "type": "address"
        },
        {
          "indexed": true,
          "internalType": "uint256",
          "name": "tokenId",
          "type": "uint256"
        }
      ],
      "name": "Transfer",
      "type": "event"
    },
    {
      "inputs": [
        {
          "internalType": "address",
          "name": "to",
          "type": "address"
        },
        {
          "internalType": "uint256",
          "name": "tokenId",
          "type": "uint256"
        }
      ],
      "name": "approve",
      "outputs": [],
      "stateMutability": "nonpayable",
      "type": "function"
    },
    {
      "inputs": [
        {
          "internalType": "address",
          "name": "owner",
          "type": "address"
        }
      ],
      "name": "balanceOf",
      "outputs": [
        {
          "internalType": "uint256",
          "name": "",
          "type": "uint256"
        }
      ],
      "stateMutability": "view",
      "type": "function"
    },
    {
      "inputs": [],
      "name": "getAllTokens",
      "outputs": [
        {
          "internalType": "uint256[]",
          "name": "",
          "type": "uint256[]"
        }
      ],
      "stateMutability": "view",
      "type": "function"
    },
    {
      "inputs": [
        {
          "internalType": "uint256",
          "name": "tokenId",
          "type": "uint256"
        }
      ],
      "name": "getApproved",
      "outputs": [
        {
          "internalType": "address",
          "name": "",
          "type": "address"
        }
      ],
      "stateMutability": "view",
      "type": "function"
    },
    {
      "inputs": [
        {
          "internalType": "address",
          "name": "owner",
          "type": "address"
        },
        {
          "internalType": "address",
          "name": "operator",
          "type": "address"
        }
      ],
      "name": "isApprovedForAll",
      "outputs": [
        {
          "internalType": "bool",
          "name": "",
          "type": "bool"
        }
      ],
      "stateMutability": "view",
      "type": "function"
    },
    {
      "inputs": [
        {
          "internalType": "string",
          "name": "tokenURI",
          "type": "string"
        }
      ],
      "name": "mint",
      "outputs": [
        {
          "internalType": "uint256",
          "name": "",
          "type": "uint256"
        }
      ],
      "stateMutability": "nonpayable",
      "type": "function"
    },
    {
      "inputs": [],
      "name": "name",
      "outputs": [
        {
          "internalType": "string",
          "name": "",
          "type": "string"
        }
      ],
      "stateMutability": "view",
      "type": "function"
    },
    {
      "inputs": [],
      "name": "owner",
      "outputs": [
        {
          "internalType": "address",
          "name": "",
          "type": "address"
        }
      ],
      "stateMutability": "view",
      "type": "function"
    },
    {
      "inputs": [
        {
          "internalType": "uint256",
          "name": "tokenId",
          "type": "uint256"
        }
      ],
      "name": "ownerOf",
      "outputs": [
        {
          "internalType": "address",
          "name": "",
          "type": "address"
        }
      ],
      "stateMutability": "view",
      "type": "function"
    },
    {
      "inputs": [],
      "name": "renounceOwnership",
      "outputs": [],
      "stateMutability": "nonpayable",
      "type": "function"
    },
    {
      "inputs": [
        {
          "internalType": "address",
          "name": "from",
          "type": "address"
        },
        {
          "internalType": "address",
          "name": "to",
          "type": "address"
        },
        {
          "internalType": "uint256",
          "name": "tokenId",
          "type": "uint256"
        }
      ],
      "name": "safeTransferFrom",
      "outputs": [],
      "stateMutability": "nonpayable",
      "type": "function"
    },
    {
      "inputs": [
        {
          "internalType": "address",
          "name": "from",
          "type": "address"
        },
        {
          "internalType": "address",
          "name": "to",
          "type": "address"
        },
        {
          "internalType": "uint256",
          "name": "tokenId",
          "type": "uint256"
        },
        {
          "internalType": "bytes",
          "name": "data",
          "type": "bytes"
        }
      ],
      "name": "safeTransferFrom",
      "outputs": [],
      "stateMutability": "nonpayable",
      "type": "function"
    },
    {
      "inputs": [
        {
          "internalType": "address",
          "name": "operator",
          "type": "address"
        },
        {
          "internalType": "bool",
          "name": "approved",
          "type": "bool"
        }
      ],
      "name": "setApprovalForAll",
      "outputs": [],
      "stateMutability": "nonpayable",
      "type": "function"
    },
    {
      "inputs": [
        {
          "internalType": "bytes4",
          "name": "interfaceId",
          "type": "bytes4"
        }
      ],
      "name": "supportsInterface",
      "outputs": [
        {
          "internalType": "bool",
          "name": "",
          "type": "bool"
        }
      ],
      "stateMutability": "view",
      "type": "function"
    },
    {
      "inputs": [],
      "name": "symbol",
      "outputs": [
        {
          "internalType": "string",
          "name": "",
          "type": "string"
        }
      ],
      "stateMutability": "view",
      "type": "function"
    },
    {
      "inputs": [
        {
          "internalType": "uint256",
          "name": "tokenId",
          "type": "uint256"
        }
      ],
      "name": "tokenURI",
      "outputs": [
        {
          "internalType": "string",
          "name": "",
          "type": "string"
        }
      ],
      "stateMutability": "view",
      "type": "function"
    },
    {
      "inputs": [],
      "name": "totalSupply",
      "outputs": [
        {
          "internalType": "uint256",
          "name": "",
          "type": "uint256"
        }
      ],
      "stateMutability": "view",
      "type": "function"
    },
    {
      "inputs": [
        {
          "internalType": "address",
          "name": "from",
          "type": "address"
        },
        {
          "internalType": "address",
          "name": "to",
          "type": "address"
        },
        {
          "internalType": "uint256",
          "name": "tokenId",
          "type": "uint256"
        }
      ],
      "name": "transferFrom",
      "outputs": [],
      "stateMutability": "nonpayable",
      "type": "function"
    },
    {
      "inputs": [
        {
          "internalType": "address",
          "name": "newOwner",
          "type": "address"
        }
      ],
      "name": "transferOwnership",
      "outputs": [],
      "stateMutability": "nonpayable",
      "type": "function"
    }
  ],
  "bytecode": "0x60806040523480156200001157600080fd5b50336040518060400160405280600e81526020016d13585c9ad95d1c1b1858d953919560921b815250604051806040016040528060048152602001631353919560e21b8152508160009081620000689190620001b2565b506001620000778282620001b2565b5050506001600160a01b038116620000a957604051631e4fbdf760e01b81526000600482015260240160405180910390fd5b620000b481620000bb565b506200027e565b600780546001600160a01b038381166001600160a01b0319831681179093556040519116919082907f8be0079c531659141344cd1fd0a4f28419497f9722a3daafe3b4186f6b6457e090600090a35050565b634e487b7160e01b600052604160045260246000fd5b600181811c908216806200013857607f821691505b6020821081036200015957634e487b7160e01b600052602260045260246000fd5b50919050565b601f821115620001ad57600081815260208120601f850160051c81016020861015620001885750805b601f850160051c820191505b81811015620001a95782815560010162000194565b5050505b505050565b81516001600160401b03811115620001ce57620001ce6200010d565b620001e681620001df845462000123565b846200015f565b602080601f8311600181146200021e5760008415620002055750858301515b600019600386901b1c1916600185901b178555620001a9565b600085815260208120601f198616915b828110156200024f578886015182559484019460019091019084016200022e565b50858210156200026e5787850151600019600388901b60f8161c191681555b5050505050600190811b01905550565b611541806200028e6000396000f3fe608060405234801561001057600080fd5b50600436106101215760003560e01c806370a08231116100ad578063b88d4fde11610071578063b88d4fde1461024a578063c87b56dd1461025d578063d85d3d2714610270578063e985e9c514610283578063f2fde38b1461029657600080fd5b806370a0823114610203578063715018a6146102165780638da5cb5b1461021e57806395d89b411461022f578063a22cb4651461023757600080fd5b806318160ddd116100f457806318160ddd146101a357806323b872dd146101b55780632a5c792a146101c857806342842e0e146101dd5780636352211e146101f057600080fd5b806301ffc9a71461012657806306fdde031461014e578063081812fc14610163578063095ea7b31461018e575b600080fd5b610139610134366004610fb0565b6102a9565b60405190151581526020015b60405180910390f35b6101566102d4565b604051610145919061101d565b610176610171366004611030565b610366565b6040516001600160a01b039091168152602001610145565b6101a161019c366004611065565b61038f565b005b6008545b604051908152602001610145565b6101a16101c336600461108f565b61039e565b6101d061042e565b60405161014591906110cb565b6101a16101eb36600461108f565b6104c7565b6101766101fe366004611030565b6104e7565b6101a761021136600461110f565b6104f2565b6101a161053a565b6007546001600160a01b0316610176565b61015661054e565b6101a161024536600461112a565b61055d565b6101a16102583660046111f2565b610568565b61015661026b366004611030565b610580565b6101a761027e36600461126e565b610691565b6101396102913660046112b7565b6106c2565b6101a16102a436600461110f565b6106f0565b60006001600160e01b03198216632483248360e11b14806102ce57506102ce8261072e565b92915050565b6060600080546102e3906112ea565b80601f016020809104026020016040519081016040528092919081815260200182805461030f906112ea565b801561035c5780601f106103315761010080835404028352916020019161035c565b820191906000526020600020905b81548152906001019060200180831161033f57829003601f168201915b5050505050905090565b60006103718261077e565b506000828152600460205260409020546001600160a01b03166102ce565b61039a8282336107b7565b5050565b6001600160a01b0382166103cd57604051633250574960e11b8152600060048201526024015b60405180910390fd5b60006103da8383336107c4565b9050836001600160a01b0316816001600160a01b031614610428576040516364283d7b60e01b81526001600160a01b03808616600483015260248201849052821660448201526064016103c4565b50505050565b60085460609060008167ffffffffffffffff81111561044f5761044f611166565b604051908082528060200260200182016040528015610478578160200160208202803683370190505b50905060005b828110156104c05761049181600161133a565b8282815181106104a3576104a361134d565b6020908102919091010152806104b881611363565b91505061047e565b5092915050565b6104e283838360405180602001604052806000815250610568565b505050565b60006102ce8261077e565b60006001600160a01b03821661051e576040516322718ad960e21b8152600060048201526024016103c4565b506001600160a01b031660009081526003602052604090205490565b6105426108bd565b61054c60006108ea565b565b6060600180546102e3906112ea565b61039a33838361093c565b61057384848461039e565b61042833858585856109db565b606061058b8261077e565b50600082815260066020526040812080546105a5906112ea565b80601f01602080910402602001604051908101604052809291908181526020018280546105d1906112ea565b801561061e5780601f106105f35761010080835404028352916020019161061e565b820191906000526020600020905b81548152906001019060200180831161060157829003601f168201915b50505050509050600061063c60408051602081019091526000815290565b9050805160000361064e575092915050565b81511561068057808260405160200161066892919061137c565b60405160208183030381529060405292505050919050565b61068984610b06565b949350505050565b60006001600860008282546106a6919061133a565b90915550506008546106b83382610b7b565b6102ce8184610b95565b6001600160a01b03918216600090815260056020908152604080832093909416825291909152205460ff1690565b6106f86108bd565b6001600160a01b03811661072257604051631e4fbdf760e01b8152600060048201526024016103c4565b61072b816108ea565b50565b60006001600160e01b031982166380ac58cd60e01b148061075f57506001600160e01b03198216635b5e139f60e01b145b806102ce57506301ffc9a760e01b6001600160e01b03198316146102ce565b6000818152600260205260408120546001600160a01b0316806102ce57604051637e27328960e01b8152600481018490526024016103c4565b6104e28383836001610be5565b6000828152600260205260408120546001600160a01b03908116908316156107f1576107f1818486610ceb565b6001600160a01b0381161561082f5761080e600085600080610be5565b6001600160a01b038116600090815260036020526040902080546000190190555b6001600160a01b0385161561085e576001600160a01b0385166000908152600360205260409020805460010190555b60008481526002602052604080822080546001600160a01b0319166001600160a01b0389811691821790925591518793918516917fddf252ad1be2c89b69c2b068fc378daa952ba7f163c4a11628f55a4df523b3ef91a4949350505050565b6007546001600160a01b0316331461054c5760405163118cdaa760e01b81523360048201526024016103c4565b600780546001600160a01b038381166001600160a01b0319831681179093556040519116919082907f8be0079c531659141344cd1fd0a4f28419497f9722a3daafe3b4186f6b6457e090600090a35050565b6001600160a01b03821661096e57604051630b61174360e31b81526001600160a01b03831660048201526024016103c4565b6001600160a01b03838116600081815260056020908152604080832094871680845294825291829020805460ff191686151590811790915591519182527f17307eab39ab6107e8899845ad3d59bd9653f200f220920489ca2b5937696c31910160405180910390a3505050565b6001600160a01b0383163b15610aff57604051630a85bd0160e11b81526001600160a01b0384169063150b7a0290610a1d9088908890879087906004016113ab565b6020604051808303816000875af1925050508015610a58575060408051601f3d908101601f19168201909252610a55918101906113e8565b60015b610ac1573d808015610a86576040519150601f19603f3d011682016040523d82523d6000602084013e610a8b565b606091505b508051600003610ab957604051633250574960e11b81526001600160a01b03851660048201526024016103c4565b805160208201fd5b6001600160e01b03198116630a85bd0160e11b14610afd57604051633250574960e11b81526001600160a01b03851660048201526024016103c4565b505b5050505050565b6060610b118261077e565b506000610b2960408051602081019091526000815290565b90506000815111610b495760405180602001604052806000815250610b74565b80610b5384610d4f565b604051602001610b6492919061137c565b6040516020818303038152906040525b9392505050565b61039a828260405180602001604052806000815250610de2565b6000828152600660205260409020610bad828261144b565b506040518281527ff8e1a15aba9398e019f0b49df1a4fde98ee17ae345cb5f6b5e2c27f5033e8ce79060200160405180910390a15050565b8080610bf957506001600160a01b03821615155b15610cbb576000610c098461077e565b90506001600160a01b03831615801590610c355750826001600160a01b0316816001600160a01b031614155b8015610c485750610c4681846106c2565b155b15610c715760405163a9fbf51f60e01b81526001600160a01b03841660048201526024016103c4565b8115610cb95783856001600160a01b0316826001600160a01b03167f8c5be1e5ebec7d5bd14f71427d1e84f3dd0314c0f7b2291e5b200ac8c7c3b92560405160405180910390a45b505b5050600090815260046020526040902080546001600160a01b0319166001600160a01b0392909216919091179055565b610cf6838383610dfa565b6104e2576001600160a01b038316610d2457604051637e27328960e01b8152600481018290526024016103c4565b60405163177e802f60e01b81526001600160a01b0383166004820152602481018290526044016103c4565b60606000610d5c83610e5d565b600101905060008167ffffffffffffffff811115610d7c57610d7c611166565b6040519080825280601f01601f191660200182016040528015610da6576020820181803683370190505b5090508181016020015b600019016f181899199a1a9b1b9c1cb0b131b232b360811b600a86061a8153600a8504945084610db057509392505050565b610dec8383610f35565b6104e23360008585856109db565b60006001600160a01b038316158015906106895750826001600160a01b0316846001600160a01b03161480610e345750610e3484846106c2565b806106895750506000908152600460205260409020546001600160a01b03908116911614919050565b60008072184f03e93ff9f4daa797ed6e38ed64bf6a1f0160401b8310610e9c5772184f03e93ff9f4daa797ed6e38ed64bf6a1f0160401b830492506040015b6d04ee2d6d415b85acef81000000008310610ec8576d04ee2d6d415b85acef8100000000830492506020015b662386f26fc100008310610ee657662386f26fc10000830492506010015b6305f5e1008310610efe576305f5e100830492506008015b6127108310610f1257612710830492506004015b60648310610f24576064830492506002015b600a83106102ce5760010192915050565b6001600160a01b038216610f5f57604051633250574960e11b8152600060048201526024016103c4565b6000610f6d838360006107c4565b90506001600160a01b038116156104e2576040516339e3563760e11b8152600060048201526024016103c4565b6001600160e01b03198116811461072b57600080fd5b600060208284031215610fc257600080fd5b8135610b7481610f9a565b60005b83811015610fe8578181015183820152602001610fd0565b50506000910152565b60008151808452611009816020860160208601610fcd565b601f01601f19169290920160200192915050565b602081526000610b746020830184610ff1565b60006020828403121561104257600080fd5b5035919050565b80356001600160a01b038116811461106057600080fd5b919050565b6000806040838503121561107857600080fd5b61108183611049565b946020939093013593505050565b6000806000606084860312156110a457600080fd5b6110ad84611049565b92506110bb60208501611049565b9150604084013590509250925092565b6020808252825182820181905260009190848201906040850190845b81811015611103578351835292840192918401916001016110e7565b50909695505050505050565b60006020828403121561112157600080fd5b610b7482611049565b6000806040838503121561113d57600080fd5b61114683611049565b91506020830135801515811461115b57600080fd5b809150509250929050565b634e487b7160e01b600052604160045260246000fd5b600067ffffffffffffffff8084111561119757611197611166565b604051601f8501601f19908116603f011681019082821181831017156111bf576111bf611166565b816040528093508581528686860111156111d857600080fd5b858560208301376000602087830101525050509392505050565b6000806000806080858703121561120857600080fd5b61121185611049565b935061121f60208601611049565b925060408501359150606085013567ffffffffffffffff81111561124257600080fd5b8501601f8101871361125357600080fd5b6112628782356020840161117c565b91505092959194509250565b60006020828403121561128057600080fd5b813567ffffffffffffffff81111561129757600080fd5b8201601f810184136112a857600080fd5b6106898482356020840161117c565b600080604083850312156112ca57600080fd5b6112d383611049565b91506112e160208401611049565b90509250929050565b600181811c908216806112fe57607f821691505b60208210810361131e57634e487b7160e01b600052602260045260246000fd5b50919050565b634e487b7160e01b600052601160045260246000fd5b808201808211156102ce576102ce611324565b634e487b7160e01b600052603260045260246000fd5b60006001820161137557611375611324565b5060010190565b6000835161138e818460208801610fcd565b8351908301906113a2818360208801610fcd565b01949350505050565b6001600160a01b03858116825284166020820152604081018390526080606082018190526000906113de90830184610ff1565b9695505050505050565b6000602082840312156113fa57600080fd5b8151610b7481610f9a565b601f8211156104e257600081815260208120601f850160051c8101602086101561142c5750805b601f850160051c820191505b81811015610afd57828155600101611438565b815167ffffffffffffffff81111561146557611465611166565b6114798161147384546112ea565b84611405565b602080601f8311600181146114ae57600084156114965750858301515b600019600386901b1c1916600185901b178555610afd565b600085815260208120601f198616915b828110156114dd578886015182559484019460019091019084016114be565b50858210156114fb5787850151600019600388901b60f8161c191681555b5050505050600190811b0190555056fea264697066735822122076d27687ba38c73b0adf8038641535b991c82ad8f651fdcf07e9322cce0498dc64736f6c63430008140033",
  "linkReferences": {},
  "deployedLinkReferences": {}
}